S0210000726669645F776974685F61746D6567613136615F72633532322E73726563E0
S11300000C942A000C9447000C9447000C9447006D
S11300100C9447000C9447000C9447000C94470040
S11300200C9447000C9447000C9447000C94470030
S11300300C9447000C9447000C9447000C94470020
S11300400C9447000C9447000C9447000C94470010
S11300500C94470011241FBECFE5D4E0DEBFCDBF12
S113006010E0A0E6B0E0E6E7FFE002C005900D92E4
S1130070A836B107D9F720E0A8E6B0E001C01D9288
S1130080AA36B207E1F70E949C010C94B9070C94BC
S1130090000007C0E7ECF0E03197F1F700C0000082
S11300A001970097B9F70895CF93C82F85B38F7040
S11300B085BB82B38F7B82BB82B3806882BB95B3DE
S11300C08C2F807F982B95BB95B3892B85BB82B3EE
S11300D08F7782BB81E090E00E94490085B38F70E6
S11300E085BB82B38F7B82BB82B3806882BB25B31E
S11300F030E1C39FC0011124922F982B95BB95B377
S1130100892B85BB82B38F7782BB82E090E00E940B
S11301104900CF910895823029F480EC860F0E9423
S11301205400089580E8860F0E9454000895CF93E8
S1130130C82F85B38F7085BB82B3806482BB82B3C2
S1130140806882BB95B38C2F807F982B95BB95B329
S1130150892B85BB82B38F7782BB81E090E00E94BC
S1130160490085B38F7085BB82B3806482BB82B340
S1130170806882BB25B330E1C39FC0011124922F54
S1130180982B95BB95B3892B85BB82B38F7782BBA4
S113019082E090E00E944900CF910895CF93DF93CD
S11301A0EC0103C00E949700219688818111FACF47
S11301B0DF91CF91089581E00E94540089E290E09C
S11301C00E944900089582E00E94540089E290E070
S11301D00E9449000895CF93DF93811102C0DCE0AF
S11301E001C0DEE06111D16080E991E00E94490024
S11301F081B3806881BB81B3806481BB84B3806F29
S113020084BB85B38F7085BBC0E014C082B38F7B81
S113021082BB82B3806882BB85B3806385BB85B3B0
S1130220806385BB82B38F7782BB82E090E00E94BB
S11302304900CF5FC33050F385B38F7085BB82B361
S11302408F7B82BB82B3806882BB85B3806285BBAF
S113025085B3806285BB82B38F7782BB89E290E0ED
S11302600E94490088E20E94540089E290E00E94C2
S113027049008D2F0E94540089E290E00E944900B9
S11302800E94DB000E94E300DF91CF910895CF929A
S1130290DF92EF92FF920F931F93CF93DF93CDB72B
S11302A0DEB72B970FB6F894DEBF0FBECDBF6C013F
S11302B000E010E0E12CF12C1EC0F601E00FF11F6C
S11302C080811F928F9382E690E09F938F9381E0C9
S11302D090E08C0F9D1F8E0D9F1D9F938F930E9406
S11302E0CF04E80EF91E0F5F1F4F0F900F900F9071
S11302F00F900F900F9005301105FCF2E1E0F0E053
S1130300EC0FFD1FEE0DFF1D108260E081E00E94E6
S11303108B00CE0101960E94CE002B960FB6F89466
S1130320DEBF0FBECDBFDF91CF911F910F91FF9024
S1130330EF90DF90CF900895CF93DF93CDB7DEB7E2
S113034060970FB6F894DEBF0FBECDBF0E94D001F8
S113035081B3806281BB82B38F7D82BB85B38F60A2
S113036085BB60E080E00E94EB000E94DF010E94F8
S11303708D02BE016F5F7F4F86E20E948A03811166
S1130380F8CFCE0101960E94BB03CE0101960E94D4
S11303904701CE0101960E944C040E949D04E9CFBE
S11303A087B3806B87BB8DB181658DB988B380615C
S11303B088BB08958FB9779BFECF8FB1089547B35B
S11303C0E0E6F0E081E090E09C01008002C0220FB2
S11303D0331F0A94E2F7242B27BB48B39C01008007
S11303E002C0220F331F0A94E2F7242B28BB47B321
S11303F0E8E6F0E09C01008002C0220F331F0A945B
S1130400E2F7242B27BB28B3008002C0880F991F72
S11304100A94E2F7822B88BB0895FF920F931F93EF
S1130420CF93DF93F62E28B300E610E0C1E0D0E0CE
S1130430AE01F801008002C0440F551F0A94E2F790
S1130440942F9095922398BB90E0880F991F8E77F4
S11304500E94DA018F2D0E94DA0188B3F80100802E
S113046002C0CC0FDD1F0A94E2F7C82BC8BBDF9192
S1130470CF911F910F91FF9008950F931F93CF93E6
S1130480DF9328B300E610E0C1E0D0E0AE01F8014C
S1130490008002C0440F551F0A94E2F7942F9095F0
S11304A0922398BB90E0880F991F8E7780680E94F2
S11304B0DA0180E00E94DA0198B3F801008002C0FA
S11304C0CC0FDD1F0A94E2F7C92BC8BBDF91CF9193
S11304D01F910F9108956FE081E00E940D0208952D
S11304E0CF93DF93D82FC62F0E943D02682F6C2B29
S11304F08D2F0E940D02DF91CF910895CF93DF934A
S1130500D82FC62F0E943D02C0956C2F68238D2FD3
S11305100E940D02DF91CF91089528B381E090E00D
S11305200090600002C0880F991F0A94E2F7822BA2
S113053088BB0E946B026DE88AE20E940D026EE3A2
S11305408BE20E940D026EE18DE20E940D0260E0DA
S11305508CE20E940D0260E485E10E940D026DE3CD
S113056081E10E940D0263E084E10E94700208951B
S11305706F927F928F929F92AF92BF92CF92DF92AF
S1130580EF92FF920F931F93CF93DF93782E4B013B
S11305905A01790168018CE0781631F09EE07916F1
S11305A049F000E0612C0BC000E30F2EF7E76F2E3B
S11305B0F02D05C000E10F2EF2E16F2EF02D662D17
S11305C0606882E00E940D0260E884E00E947E027E
S11305D060E88AE00E94700260E081E00E940D02FF
S11305E0C0E0D0E008C0F401EC0FFD1F608189E099
S11305F00E940D022196CA15DB05ACF3672D81E03C
S11306000E940D02ECE07E1204C060E88DE00E94BE
S11306107002C9E1D0E08FE097E20197F1F700C0E2
S1130620000084E00E943D02182F219729F080FDEC
S113063003C0802F812379F360E88DE00E947E025D
S1130640CD2B09F452C086E00E943D028D7109F061
S11306504FC0162110FD03C0C0E0D0E002C0C1E0CD
S1130660D0E09CE0791246C08AE00E943D02B82E98
S11306708CE00E943D02282F277079F08B2D90E0AA
S11306800197880F991F880F991F880F991F820F50
S1130690911DF601918380830BC08B2D90E0880F10
S11306A0991F880F991F880F991FF60191838083E2
S11306B0B11002C0BB24B394F0E1FB1518F46894A4
S11306C0BB24B4F800E010E00AC06701C00ED11EDC
S11306D089E00E943D02F60180830F5F1F4F8B2D3E
S11306E090E0081719078CF305C0C2E0D0E002C0FF
S11306F0C2E0D0E0CE01DF91CF911F910F91FF9026
S1130700EF90DF90CF90BF90AF909F908F907F90AD
S11307106F900895EF92FF920F931F93CF93DF93FF
S113072000D0CDB7DEB7182F7B0167E08DE00E94C3
S11307300D02F70110838E010F5F1F4F970141E0F7
S113074050E0B7018CE00E94B802009731F429818F
S11307503A812031310521F405C082E090E002C0E5
S113076082E090E00F900F90DF91CF911F910F9155
S1130770FF90EF900895EF92FF920F931F93CF9302
S1130780DF9300D0CDB7DEB77C0160E08DE00E943E
S11307900D0283E9F701808380E281838E010F5F7C
S11307A01F4F970142E050E0B7018CE00E94B8026D
S11307B0DC0169817A81772314F4695F7F4F759531
S11307C067957595679575956795109749F019C064
S11307D0F701E20FF31F408194272F5F3F4F03C0BF
S11307E090E020E030E0AB01415051092417350777
S11307F07CF3F701E20FF31F8081981711F0A2E058
S1130800B0E0CD010F900F90DF91CF911F910F9128
S1130810FF90EF900895CF92DF92EF92FF920F93A3
S11308201F93CF93DF936C018B017A0164E085E021
S11308300E947E0260E88AE00E947002C0E0D0E07C
S113084008C0F601EC0FFD1F608189E00E940D02D3
S11308502196C017D107ACF363E081E00E940D023A
S1130860CFEFD0E085E00E943D02219711F082FF96
S1130870F9CF82E20E943D02F701808381E20E9467
S11308803D02F7018183DF91CF911F910F91FF907A
S1130890EF90DF90CF9008950F931F93CF93DF9342
S11308A0CDB7DEB72B970FB6F894DEBF0FBECDBF22
S11308B0AC0183E98B8380E78C8320E030E00FC0B8
S11308C0F9013296DA01A20FB31F9C9163E070E044
S11308D06C0F7D1FE60FF71F90832F5F3F4F25306E
S11308E0310574F3AE01465F5F4F67E070E0CE01FF
S11308F003960E940B048E010F5F1F4F9E012D5F14
S11309003F4F49E050E0B9018CE00E94B802892BC6
S113091031F489819A81489721F48B8103C080E066
S113092001C080E02B960FB6F894DEBF0FBECDBF9A
S1130930DF91CF911F910F9108950F931F93CF9340
S1130940DF9300D000D000D0CDB7DEB780E58B8335
S11309501C82AE014B5F5F4F62E070E0CE010396F4
S11309600E940B048E010F5F1F4F9E012D5F3F4FAE
S113097044E050E0B9018CE00E94B8028C0168E0C8
S113098088E00E947E02C80126960FB6F894DEBF66
S11309900FBECDBFDF91CF911F910F910895AEE0AF
S11309A0B0E0E5EDF4E00C9490070D891E8986E033
S11309B08C831A8309838FEF9FE79E838D83AE0117
S11309C0475E5F4F6F89788DCE0101960E94F104D6
S11309D0EF81F885E00FF11F10822E96E4E00C946D
S11309E0AC07ABE0B0E0E7EFF4E00C9482076C01F5
S11309F07B018A01FC0117821682838181FFCCC1AD
S1130A00CE0101963C01F6019381F70193FD859196
S1130A1093FF81917F01882309F4BAC1853239F4A7
S1130A2093FD859193FF81917F01853229F4B6016D
S1130A3090E00E94E806E7CF912C212C312CFFE1B5
S1130A40F315D8F08B3279F038F4803279F08332B0
S1130A50A1F4232D20611DC08D3261F0803369F42F
S1130A60232D216016C0832D8260382EE32DE4608F
S1130A703E2E2AC0F32DF8601DC037FC2DC020ED9A
S1130A80280F2A3040F08E32B9F436FC81C1232D70
S1130A902064322E19C036FE06C08AE0989E200DCE
S1130AA01124922E11C0EAE02E9E200D1124222E34
S1130AB0F32DF0623F2E08C08C3621F4832D80681C
S1130AC0382E02C0883641F4F70193FD859193FFD7
S1130AD081917F018111B3CF982F9F7D95549330DD
S1130AE028F40C5F1F4F9FE399830DC0833631F0C8
S1130AF0833771F0833509F059C021C0F801808132
S1130B0089830E5F1F4F88248394912C530113C053
S1130B102801F2E04F0E511CF801A080B18036FE8E
S1130B2003C0692D70E002C06FEF7FEFC5010E9422
S1130B30DD064C018201F32DFF773F2E16C02801FC
S1130B4022E0420E511CF801A080B18036FE03C0A1
S1130B50692D70E002C06FEF7FEFC5010E94D206DD
S1130B604C01F32DF0683F2E820133FC1BC0822D13
S1130B7090E088169906B0F4B60180E290E00E94F5
S1130B80E8062A94F4CFF50137FC859137FE81916C
S1130B905F01B60190E00E94E80621102A9421E04A
S1130BA0821A91088114910471F7E8C0843611F017
S1130BB0893641F5F80137FE07C060817181828171
S1130BC093810C5F1F4F08C060817181072E000C58
S1130BD0880B990B0E5F1F4FF32DFF763F2E97FF67
S1130BE009C090958095709561957F4F8F4F9F4F69
S1130BF0F0683F2E2AE030E0A3010E942407882EEB
S1130C00861845C0853731F4232D2F7EB22E2AE075
S1130C1030E025C0932D997FB92E8F36C1F018F49A
S1130C20883579F0B5C0803719F0883721F0B0C025
S1130C30E92FE061BE2EB4FE0DC0FB2DF460BF2E83
S1130C4009C034FE0AC0292F2660B22E06C028E04F
S1130C5030E005C020E130E002C020E132E0F801DC
S1130C60B7FE07C060817181828193810C5F1F4F41
S1130C7006C06081718180E090E00E5F1F4FA30188
S1130C800E942407882E8618FB2DFF773F2E36FE00
S1130C900DC0232D2E7FA22E891458F434FE0BC0D0
S1130CA032FC09C0832D8E7EA82E05C0B82CA32C3F
S1130CB003C0B82C01C0B92CA4FE0FC0FE01E80D7E
S1130CC0F11D8081803321F49A2D997EA92E09C0CB
S1130CD0A2FE06C0B394B39404C08A2D867809F0AA
S1130CE0B394A3FC11C0A0FE06C0B21488F4280C6F
S1130CF0922C9B180EC0B21460F4B60180E290E00E
S1130D000E94E806B394F7CFB21418F42B1802C06B
S1130D10982C212CA4FE10C0B60180E390E00E9420
S1130D20E806A2FE17C0A1FC03C088E790E002C059
S1130D3088E590E0B6010CC08A2D867859F0A1FEB2
S1130D4002C08BE201C080E2A7FC8DE2B60190E014
S1130D500E94E806891438F4B60180E390E00E940A
S1130D60E8069A94F7CF8A94F301E80DF11D808187
S1130D70B60190E00E94E8068110F5CF222009F424
S1130D8042CEB60180E290E00E94E8062A94F6CFB3
S1130D90F6018681978102C08FEF9FEF2B96E2E1E7
S1130DA00C949E07FC010590615070400110D8F727
S1130DB0809590958E0F9F1F0895FC01615070409F
S1130DC001900110D8F7809590958E0F9F1F08957C
S1130DD00F931F93CF93DF93FB01238121FD03C066
S1130DE08FEF9FEF2CC022FF16C0468157812481CC
S1130DF035814217530744F4A081B1819D012F5FCF
S1130E003F4F318320838C93268137812F5F3F4F5F
S1130E103783268314C08B01EC01FB010084F18528
S1130E20E02D0995892BE1F6D80116968D919C91B8
S1130E301797019617969C938E931697CE01DF9180
S1130E40CF911F910F910895FA01AA27283051F1EB
S1130E50203181F1E8946F936E7F6E5F7F4F8F4FE7
S1130E609F4FAF4FB1E03ED0B4E03CD0670F781F46
S1130E70891F9A1FA11D680F791F8A1F911DA11D2B
S1130E806A0F711D811D911DA11D20D009F4689464
S1130E903F912AE0269F11243019305D3193DEF60C
S1130EA0CF010895462F4770405D4193B3E00FD0C2
S1130EB0C9F7F6CF462F4F70405D4A3318F0495DAD
S1130EC031FD4052419302D0A9F7EACFB4E0A69590
S1130ED09795879577956795BA95C9F700976105B2
S1130EE0710508959B01AC010A2E06945795479508
S1130EF037952795BA95C9F7620F731F841F951FFD
S1130F00A01D08952F923F924F925F926F927F920D
S1130F108F929F92AF92BF92CF92DF92EF92FF9205
S1130F200F931F93CF93DF93CDB7DEB7CA1BDB0BB1
S1130F300FB6F894DEBF0FBECDBF09942A88398856
S1130F4048885F846E847D848C849B84AA84B9845D
S1130F50C884DF80EE80FD800C811B81AA81B98169
S1130F60CE0FD11D0FB6F894DEBF0FBECDBFED017D
S1090F700895F894FFCF80
S10B0F7604002530325800008C
S9030000FC
